{
  "_format": "hh-sol-artifact-1",
  "contractName": "jnft",
  "sourceName": "contracts/knft.sol",
  "abi": [
    {
      "inputs": [],
      "stateMutability": "nonpayable",
      "type": "constructor"
    },
    {
      "anonymous": false,
      "inputs": [
        {
          "indexed": true,
          "internalType": "address",
          "name": "owner",
          "type": "address"
        },
        {
          "indexed": true,
          "internalType": "address",
          "name": "approved",
          "type": "address"
        },
        {
          "indexed": true,
          "internalType": "uint256",
          "name": "tokenId",
          "type": "uint256"
        }
      ],
      "name": "Approval",
      "type": "event"
    },
    {
      "anonymous": false,
      "inputs": [
        {
          "indexed": true,
          "internalType": "address",
          "name": "owner",
          "type": "address"
        },
        {
          "indexed": true,
          "internalType": "address",
          "name": "operator",
          "type": "address"
        },
        {
          "indexed": false,
          "internalType": "bool",
          "name": "approved",
          "type": "bool"
        }
      ],
      "name": "ApprovalForAll",
      "type": "event"
    },
    {
      "anonymous": false,
      "inputs": [
        {
          "indexed": true,
          "internalType": "address",
          "name": "from",
          "type": "address"
        },
        {
          "indexed": true,
          "internalType": "address",
          "name": "to",
          "type": "address"
        },
        {
          "indexed": true,
          "internalType": "uint256",
          "name": "tokenId",
          "type": "uint256"
        }
      ],
      "name": "Transfer",
      "type": "event"
    },
    {
      "inputs": [
        {
          "internalType": "address",
          "name": "to",
          "type": "address"
        },
        {
          "internalType": "uint256",
          "name": "tokenId",
          "type": "uint256"
        }
      ],
      "name": "approve",
      "outputs": [],
      "stateMutability": "nonpayable",
      "type": "function"
    },
    {
      "inputs": [
        {
          "internalType": "address",
          "name": "owner",
          "type": "address"
        }
      ],
      "name": "balanceOf",
      "outputs": [
        {
          "internalType": "uint256",
          "name": "",
          "type": "uint256"
        }
      ],
      "stateMutability": "view",
      "type": "function"
    },
    {
      "inputs": [],
      "name": "collectionName",
      "outputs": [
        {
          "internalType": "string",
          "name": "",
          "type": "string"
        }
      ],
      "stateMutability": "view",
      "type": "function"
    },
    {
      "inputs": [],
      "name": "collectionSymbol",
      "outputs": [
        {
          "internalType": "string",
          "name": "",
          "type": "string"
        }
      ],
      "stateMutability": "view",
      "type": "function"
    },
    {
      "inputs": [
        {
          "internalType": "string",
          "name": "_svg",
          "type": "string"
        }
      ],
      "name": "createknft",
      "outputs": [
        {
          "internalType": "uint256",
          "name": "",
          "type": "uint256"
        }
      ],
      "stateMutability": "nonpayable",
      "type": "function"
    },
    {
      "inputs": [
        {
          "internalType": "uint256",
          "name": "tokenId",
          "type": "uint256"
        }
      ],
      "name": "getApproved",
      "outputs": [
        {
          "internalType": "address",
          "name": "",
          "type": "address"
        }
      ],
      "stateMutability": "view",
      "type": "function"
    },
    {
      "inputs": [
        {
          "internalType": "address",
          "name": "owner",
          "type": "address"
        },
        {
          "internalType": "address",
          "name": "operator",
          "type": "address"
        }
      ],
      "name": "isApprovedForAll",
      "outputs": [
        {
          "internalType": "bool",
          "name": "",
          "type": "bool"
        }
      ],
      "stateMutability": "view",
      "type": "function"
    },
    {
      "inputs": [],
      "name": "name",
      "outputs": [
        {
          "internalType": "string",
          "name": "",
          "type": "string"
        }
      ],
      "stateMutability": "view",
      "type": "function"
    },
    {
      "inputs": [
        {
          "internalType": "uint256",
          "name": "tokenId",
          "type": "uint256"
        }
      ],
      "name": "ownerOf",
      "outputs": [
        {
          "internalType": "address",
          "name": "",
          "type": "address"
        }
      ],
      "stateMutability": "view",
      "type": "function"
    },
    {
      "inputs": [
        {
          "internalType": "address",
          "name": "from",
          "type": "address"
        },
        {
          "internalType": "address",
          "name": "to",
          "type": "address"
        },
        {
          "internalType": "uint256",
          "name": "tokenId",
          "type": "uint256"
        }
      ],
      "name": "safeTransferFrom",
      "outputs": [],
      "stateMutability": "nonpayable",
      "type": "function"
    },
    {
      "inputs": [
        {
          "internalType": "address",
          "name": "from",
          "type": "address"
        },
        {
          "internalType": "address",
          "name": "to",
          "type": "address"
        },
        {
          "internalType": "uint256",
          "name": "tokenId",
          "type": "uint256"
        },
        {
          "internalType": "bytes",
          "name": "_data",
          "type": "bytes"
        }
      ],
      "name": "safeTransferFrom",
      "outputs": [],
      "stateMutability": "nonpayable",
      "type": "function"
    },
    {
      "inputs": [
        {
          "internalType": "address",
          "name": "operator",
          "type": "address"
        },
        {
          "internalType": "bool",
          "name": "approved",
          "type": "bool"
        }
      ],
      "name": "setApprovalForAll",
      "outputs": [],
      "stateMutability": "nonpayable",
      "type": "function"
    },
    {
      "inputs": [
        {
          "internalType": "bytes4",
          "name": "interfaceId",
          "type": "bytes4"
        }
      ],
      "name": "supportsInterface",
      "outputs": [
        {
          "internalType": "bool",
          "name": "",
          "type": "bool"
        }
      ],
      "stateMutability": "view",
      "type": "function"
    },
    {
      "inputs": [],
      "name": "symbol",
      "outputs": [
        {
          "internalType": "string",
          "name": "",
          "type": "string"
        }
      ],
      "stateMutability": "view",
      "type": "function"
    },
    {
      "inputs": [
        {
          "internalType": "uint256",
          "name": "tokenId",
          "type": "uint256"
        }
      ],
      "name": "tokenURI",
      "outputs": [
        {
          "internalType": "string",
          "name": "",
          "type": "string"
        }
      ],
      "stateMutability": "view",
      "type": "function"
    },
    {
      "inputs": [
        {
          "internalType": "address",
          "name": "from",
          "type": "address"
        },
        {
          "internalType": "address",
          "name": "to",
          "type": "address"
        },
        {
          "internalType": "uint256",
          "name": "tokenId",
          "type": "uint256"
        }
      ],
      "name": "transferFrom",
      "outputs": [],
      "stateMutability": "nonpayable",
      "type": "function"
    }
  ],
  "bytecode": "0x60806040523480156200001157600080fd5b506040518060400160405280600481526020017f6a4e4654000000000000000000000000000000000000000000000000000000008152506040518060400160405280600481526020017f6a4e4654000000000000000000000000000000000000000000000000000000008152508160009080519060200190620000969291906200023c565b508060019080519060200190620000af9291906200023c565b505050620000c26200010860201b60201c565b60089080519060200190620000d99291906200023c565b50620000ea620001a260201b60201c565b60099080519060200190620001019291906200023c565b5062000350565b60606000805462000119906200031b565b80601f016020809104026020016040519081016040528092919081815260200182805462000147906200031b565b8015620001985780601f106200016c5761010080835404028352916020019162000198565b820191906000526020600020905b8154815290600101906020018083116200017a57829003601f168201915b5050505050905090565b606060018054620001b3906200031b565b80601f0160208091040260200160405190810160405280929190818152602001828054620001e1906200031b565b8015620002325780601f10620002065761010080835404028352916020019162000232565b820191906000526020600020905b8154815290600101906020018083116200021457829003601f168201915b5050505050905090565b8280546200024a906200031b565b90600052602060002090601f0160209004810192826200026e5760008555620002ba565b82601f106200028957805160ff1916838001178555620002ba565b82800160010185558215620002ba579182015b82811115620002b95782518255916020019190600101906200029c565b5b509050620002c99190620002cd565b5090565b5b80821115620002e8576000816000905550600101620002ce565b5090565b7f4e487b7100000000000000000000000000000000000000000000000000000000600052602260045260246000fd5b600060028204905060018216806200033457607f821691505b6020821081036200034a5762000349620002ec565b5b50919050565b6133fa80620003606000396000f3fe608060405234801561001057600080fd5b50600436106101005760003560e01c806370a0823111610097578063c87b56dd11610066578063c87b56dd146102ab578063e04b93fa146102db578063e5326ab11461030b578063e985e9c51461032957610100565b806370a082311461022557806395d89b4114610255578063a22cb46514610273578063b88d4fde1461028f57610100565b806323b872dd116100d357806323b872dd1461019f5780632f39352a146101bb57806342842e0e146101d95780636352211e146101f557610100565b806301ffc9a71461010557806306fdde0314610135578063081812fc14610153578063095ea7b314610183575b600080fd5b61011f600480360381019061011a9190611d43565b610359565b60405161012c9190611d8b565b60405180910390f35b61013d61043b565b60405161014a9190611e3f565b60405180910390f35b61016d60048036038101906101689190611e97565b6104cd565b60405161017a9190611f05565b60405180910390f35b61019d60048036038101906101989190611f4c565b610552565b005b6101b960048036038101906101b49190611f8c565b610669565b005b6101c36106c9565b6040516101d09190611e3f565b60405180910390f35b6101f360048036038101906101ee9190611f8c565b610757565b005b61020f600480360381019061020a9190611e97565b610777565b60405161021c9190611f05565b60405180910390f35b61023f600480360381019061023a9190611fdf565b610828565b60405161024c919061201b565b60405180910390f35b61025d6108df565b60405161026a9190611e3f565b60405180910390f35b61028d60048036038101906102889190612062565b610971565b005b6102a960048036038101906102a491906121d7565b610987565b005b6102c560048036038101906102c09190611e97565b6109e9565b6040516102d29190611e3f565b60405180910390f35b6102f560048036038101906102f091906122fb565b610b3a565b604051610302919061201b565b60405180910390f35b610313610c1c565b6040516103209190611e3f565b60405180910390f35b610343600480360381019061033e9190612344565b610caa565b6040516103509190611d8b565b60405180910390f35b60007f80ac58cd000000000000000000000000000000000000000000000000000000007bffffffffffffffffffffffffffffffffffffffffffffffffffffffff1916827bffffffffffffffffffffffffffffffffffffffffffffffffffffffff1916148061042457507f5b5e139f000000000000000000000000000000000000000000000000000000007bffffffffffffffffffffffffffffffffffffffffffffffffffffffff1916827bffffffffffffffffffffffffffffffffffffffffffffffffffffffff1916145b80610434575061043382610d3e565b5b9050919050565b60606000805461044a906123b3565b80601f0160208091040260200160405190810160405280929190818152602001828054610476906123b3565b80156104c35780601f10610498576101008083540402835291602001916104c3565b820191906000526020600020905b8154815290600101906020018083116104a657829003601f168201915b5050505050905090565b60006104d882610da8565b610517576040517f08c379a000000000000000000000000000000000000000000000000000000000815260040161050e90612456565b60405180910390fd5b6004600083815260200190815260200160002060009054906101000a900473ffffffffffffffffffffffffffffffffffffffff169050919050565b600061055d82610777565b90508073ffffffffffffffffffffffffffffffffffffffff168373ffffffffffffffffffffffffffffffffffffffff16036105cd576040517f08c379a00000000000000000000000000000000000000000000000000000000081526004016105c4906124e8565b60405180910390fd5b8073ffffffffffffffffffffffffffffffffffffffff166105ec610e14565b73ffffffffffffffffffffffffffffffffffffffff16148061061b575061061a81610615610e14565b610caa565b5b61065a576040517f08c379a00000000000000000000000000000000000000000000000000000000081526004016106519061257a565b60405180910390fd5b6106648383610e1c565b505050565b61067a610674610e14565b82610ed5565b6106b9576040517f08c379a00000000000000000000000000000000000000000000000000000000081526004016106b09061260c565b60405180910390fd5b6106c4838383610fb3565b505050565b600980546106d6906123b3565b80601f0160208091040260200160405190810160405280929190818152602001828054610702906123b3565b801561074f5780601f106107245761010080835404028352916020019161074f565b820191906000526020600020905b81548152906001019060200180831161073257829003601f168201915b505050505081565b61077283838360405180602001604052806000815250610987565b505050565b6000806002600084815260200190815260200160002060009054906101000a900473ffffffffffffffffffffffffffffffffffffffff169050600073ffffffffffffffffffffffffffffffffffffffff168173ffffffffffffffffffffffffffffffffffffffff160361081f576040517f08c379a00000000000000000000000000000000000000000000000000000000081526004016108169061269e565b60405180910390fd5b80915050919050565b60008073ffffffffffffffffffffffffffffffffffffffff168273ffffffffffffffffffffffffffffffffffffffff1603610898576040517f08c379a000000000000000000000000000000000000000000000000000000000815260040161088f90612730565b60405180910390fd5b600360008373ffffffffffffffffffffffffffffffffffffffff1673ffffffffffffffffffffffffffffffffffffffff168152602001908152602001600020549050919050565b6060600180546108ee906123b3565b80601f016020809104026020016040519081016040528092919081815260200182805461091a906123b3565b80156109675780601f1061093c57610100808354040283529160200191610967565b820191906000526020600020905b81548152906001019060200180831161094a57829003601f168201915b5050505050905090565b61098361097c610e14565b8383611219565b5050565b610998610992610e14565b83610ed5565b6109d7576040517f08c379a00000000000000000000000000000000000000000000000000000000081526004016109ce9061260c565b60405180910390fd5b6109e384848484611385565b50505050565b60606109f482610da8565b610a33576040517f08c379a0000000000000000000000000000000000000000000000000000000008152600401610a2a906127c2565b60405180910390fd5b6000600660008481526020019081526020016000208054610a53906123b3565b80601f0160208091040260200160405190810160405280929190818152602001828054610a7f906123b3565b8015610acc5780601f10610aa157610100808354040283529160200191610acc565b820191906000526020600020905b815481529060010190602001808311610aaf57829003601f168201915b505050505090506000610add6113e1565b90506000815103610af2578192505050610b35565b600082511115610b27578082604051602001610b0f92919061281e565b60405160208183030381529060405292505050610b35565b610b30846113f8565b925050505b919050565b600080610b47600761149f565b90506000604051806101600160405280610136815260200161324f61013691399050600081610b75846114ad565b604051602001610b8692919061288e565b60405160208183030381529060405290506000610bcb86610ba68461160d565b604051602001610bb79291906129ed565b60405160208183030381529060405261160d565b9050600081604051602001610be09190612a7e565b6040516020818303038152906040529050610bfb33866117a4565b610c0585826117c2565b610c0f6007611836565b8495505050505050919050565b60088054610c29906123b3565b80601f0160208091040260200160405190810160405280929190818152602001828054610c55906123b3565b8015610ca25780601f10610c7757610100808354040283529160200191610ca2565b820191906000526020600020905b815481529060010190602001808311610c8557829003601f168201915b505050505081565b6000600560008473ffffffffffffffffffffffffffffffffffffffff1673ffffffffffffffffffffffffffffffffffffffff16815260200190815260200160002060008373ffffffffffffffffffffffffffffffffffffffff1673ffffffffffffffffffffffffffffffffffffffff16815260200190815260200160002060009054906101000a900460ff16905092915050565b60007f01ffc9a7000000000000000000000000000000000000000000000000000000007bffffffffffffffffffffffffffffffffffffffffffffffffffffffff1916827bffffffffffffffffffffffffffffffffffffffffffffffffffffffff1916149050919050565b60008073ffffffffffffffffffffffffffffffffffffffff166002600084815260200190815260200160002060009054906101000a900473ffffffffffffffffffffffffffffffffffffffff1673ffffffffffffffffffffffffffffffffffffffff1614159050919050565b600033905090565b816004600083815260200190815260200160002060006101000a81548173ffffffffffffffffffffffffffffffffffffffff021916908373ffffffffffffffffffffffffffffffffffffffff160217905550808273ffffffffffffffffffffffffffffffffffffffff16610e8f83610777565b73ffffffffffffffffffffffffffffffffffffffff167f8c5be1e5ebec7d5bd14f71427d1e84f3dd0314c0f7b2291e5b200ac8c7c3b92560405160405180910390a45050565b6000610ee082610da8565b610f1f576040517f08c379a0000000000000000000000000000000000000000000000000000000008152600401610f1690612b12565b60405180910390fd5b6000610f2a83610777565b90508073ffffffffffffffffffffffffffffffffffffffff168473ffffffffffffffffffffffffffffffffffffffff161480610f9957508373ffffffffffffffffffffffffffffffffffffffff16610f81846104cd565b73ffffffffffffffffffffffffffffffffffffffff16145b80610faa5750610fa98185610caa565b5b91505092915050565b8273ffffffffffffffffffffffffffffffffffffffff16610fd382610777565b73ffffffffffffffffffffffffffffffffffffffff1614611029576040517f08c379a000000000000000000000000000000000000000000000000000000000815260040161102090612ba4565b60405180910390fd5b600073ffffffffffffffffffffffffffffffffffffffff168273ffffffffffffffffffffffffffffffffffffffff1603611098576040517f08c379a000000000000000000000000000000000000000000000000000000000815260040161108f90612c36565b60405180910390fd5b6110a383838361184c565b6110ae600082610e1c565b6001600360008573ffffffffffffffffffffffffffffffffffffffff1673ffffffffffffffffffffffffffffffffffffffff16815260200190815260200160002060008282546110fe9190612c85565b925050819055506001600360008473ffffffffffffffffffffffffffffffffffffffff1673ffffffffffffffffffffffffffffffffffffffff16815260200190815260200160002060008282546111559190612cb9565b92505081905550816002600083815260200190815260200160002060006101000a81548173ffffffffffffffffffffffffffffffffffffffff021916908373ffffffffffffffffffffffffffffffffffffffff160217905550808273ffffffffffffffffffffffffffffffffffffffff168473ffffffffffffffffffffffffffffffffffffffff167fddf252ad1be2c89b69c2b068fc378daa952ba7f163c4a11628f55a4df523b3ef60405160405180910390a4611214838383611851565b505050565b8173ffffffffffffffffffffffffffffffffffffffff168373ffffffffffffffffffffffffffffffffffffffff1603611287576040517f08c379a000000000000000000000000000000000000000000000000000000000815260040161127e90612d5b565b60405180910390fd5b80600560008573ffffffffffffffffffffffffffffffffffffffff1673ffffffffffffffffffffffffffffffffffffffff16815260200190815260200160002060008473ffffffffffffffffffffffffffffffffffffffff1673ffffffffffffffffffffffffffffffffffffffff16815260200190815260200160002060006101000a81548160ff0219169083151502179055508173ffffffffffffffffffffffffffffffffffffffff168373ffffffffffffffffffffffffffffffffffffffff167f17307eab39ab6107e8899845ad3d59bd9653f200f220920489ca2b5937696c31836040516113789190611d8b565b60405180910390a3505050565b611390848484610fb3565b61139c84848484611856565b6113db576040517f08c379a00000000000000000000000000000000000000000000000000000000081526004016113d290612ded565b60405180910390fd5b50505050565b606060405180602001604052806000815250905090565b606061140382610da8565b611442576040517f08c379a000000000000000000000000000000000000000000000000000000000815260040161143990612e7f565b60405180910390fd5b600061144c6113e1565b9050600081511161146c5760405180602001604052806000815250611497565b80611476846114ad565b60405160200161148792919061281e565b6040516020818303038152906040525b915050919050565b600081600001549050919050565b6060600082036114f4576040518060400160405280600181526020017f30000000000000000000000000000000000000000000000000000000000000008152509050611608565b600082905060005b6000821461152657808061150f90612e9f565b915050600a8261151f9190612f16565b91506114fc565b60008167ffffffffffffffff811115611542576115416120ac565b5b6040519080825280601f01601f1916602001820160405280156115745781602001600182028036833780820191505090505b5090505b600085146116015760018261158d9190612c85565b9150600a8561159c9190612f47565b60306115a89190612cb9565b60f81b8183815181106115be576115bd612f78565b5b60200101907effffffffffffffffffffffffffffffffffffffffffffffffffffffffffffff1916908160001a905350600a856115fa9190612f16565b9450611578565b8093505050505b919050565b606060008251905060008103611635576040518060200160405280600081525091505061179f565b600060036002836116469190612cb9565b6116509190612f16565b600461165c9190612fa7565b9050600060208261166d9190612cb9565b67ffffffffffffffff811115611686576116856120ac565b5b6040519080825280601f01601f1916602001820160405280156116b85781602001600182028036833780820191505090505b5090506000604051806060016040528060408152602001613385604091399050600181016020830160005b8681101561175c5760038101905062ffffff818a015116603f8160121c168401518060081b905060ff603f83600c1c1686015116810190508060081b905060ff603f8360061c1686015116810190508060081b905060ff603f831686015116810190508060e01b905080845260048401935050506116e3565b506003860660018114611776576002811461178657611791565b613d3d60f01b6002830352611791565b603d60f81b60018303525b508484525050819450505050505b919050565b6117be8282604051806020016040528060008152506119dd565b5050565b6117cb82610da8565b61180a576040517f08c379a000000000000000000000000000000000000000000000000000000000815260040161180190613073565b60405180910390fd5b80600660008481526020019081526020016000209080519060200190611831929190611c34565b505050565b6001816000016000828254019250508190555050565b505050565b505050565b60006118778473ffffffffffffffffffffffffffffffffffffffff16611a38565b156119d0578373ffffffffffffffffffffffffffffffffffffffff1663150b7a026118a0610e14565b8786866040518563ffffffff1660e01b81526004016118c294939291906130e8565b6020604051808303816000875af19250505080156118fe57506040513d601f19601f820116820180604052508101906118fb9190613149565b60015b611980573d806000811461192e576040519150601f19603f3d011682016040523d82523d6000602084013e611933565b606091505b506000815103611978576040517f08c379a000000000000000000000000000000000000000000000000000000000815260040161196f90612ded565b60405180910390fd5b805181602001fd5b63150b7a0260e01b7bffffffffffffffffffffffffffffffffffffffffffffffffffffffff1916817bffffffffffffffffffffffffffffffffffffffffffffffffffffffff1916149150506119d5565b600190505b949350505050565b6119e78383611a5b565b6119f46000848484611856565b611a33576040517f08c379a0000000000000000000000000000000000000000000000000000000008152600401611a2a90612ded565b60405180910390fd5b505050565b6000808273ffffffffffffffffffffffffffffffffffffffff163b119050919050565b600073ffffffffffffffffffffffffffffffffffffffff168273ffffffffffffffffffffffffffffffffffffffff1603611aca576040517f08c379a0000000000000000000000000000000000000000000000000000000008152600401611ac1906131c2565b60405180910390fd5b611ad381610da8565b15611b13576040517f08c379a0000000000000000000000000000000000000000000000000000000008152600401611b0a9061322e565b60405180910390fd5b611b1f6000838361184c565b6001600360008473ffffffffffffffffffffffffffffffffffffffff1673ffffffffffffffffffffffffffffffffffffffff1681526020019081526020016000206000828254611b6f9190612cb9565b92505081905550816002600083815260200190815260200160002060006101000a81548173ffffffffffffffffffffffffffffffffffffffff021916908373ffffffffffffffffffffffffffffffffffffffff160217905550808273ffffffffffffffffffffffffffffffffffffffff16600073ffffffffffffffffffffffffffffffffffffffff167fddf252ad1be2c89b69c2b068fc378daa952ba7f163c4a11628f55a4df523b3ef60405160405180910390a4611c3060008383611851565b5050565b828054611c40906123b3565b90600052602060002090601f016020900481019282611c625760008555611ca9565b82601f10611c7b57805160ff1916838001178555611ca9565b82800160010185558215611ca9579182015b82811115611ca8578251825591602001919060010190611c8d565b5b509050611cb69190611cba565b5090565b5b80821115611cd3576000816000905550600101611cbb565b5090565b6000604051905090565b600080fd5b600080fd5b60007fffffffff0000000000000000000000000000000000000000000000000000000082169050919050565b611d2081611ceb565b8114611d2b57600080fd5b50565b600081359050611d3d81611d17565b92915050565b600060208284031215611d5957611d58611ce1565b5b6000611d6784828501611d2e565b91505092915050565b60008115159050919050565b611d8581611d70565b82525050565b6000602082019050611da06000830184611d7c565b92915050565b600081519050919050565b600082825260208201905092915050565b60005b83811015611de0578082015181840152602081019050611dc5565b83811115611def576000848401525b50505050565b6000601f19601f8301169050919050565b6000611e1182611da6565b611e1b8185611db1565b9350611e2b818560208601611dc2565b611e3481611df5565b840191505092915050565b60006020820190508181036000830152611e598184611e06565b905092915050565b6000819050919050565b611e7481611e61565b8114611e7f57600080fd5b50565b600081359050611e9181611e6b565b92915050565b600060208284031215611ead57611eac611ce1565b5b6000611ebb84828501611e82565b91505092915050565b600073ffffffffffffffffffffffffffffffffffffffff82169050919050565b6000611eef82611ec4565b9050919050565b611eff81611ee4565b82525050565b6000602082019050611f1a6000830184611ef6565b92915050565b611f2981611ee4565b8114611f3457600080fd5b50565b600081359050611f4681611f20565b92915050565b60008060408385031215611f6357611f62611ce1565b5b6000611f7185828601611f37565b9250506020611f8285828601611e82565b9150509250929050565b600080600060608486031215611fa557611fa4611ce1565b5b6000611fb386828701611f37565b9350506020611fc486828701611f37565b9250506040611fd586828701611e82565b9150509250925092565b600060208284031215611ff557611ff4611ce1565b5b600061200384828501611f37565b91505092915050565b61201581611e61565b82525050565b6000602082019050612030600083018461200c565b92915050565b61203f81611d70565b811461204a57600080fd5b50565b60008135905061205c81612036565b92915050565b6000806040838503121561207957612078611ce1565b5b600061208785828601611f37565b92505060206120988582860161204d565b9150509250929050565b600080fd5b600080fd5b7f4e487b7100000000000000000000000000000000000000000000000000000000600052604160045260246000fd5b6120e482611df5565b810181811067ffffffffffffffff82111715612103576121026120ac565b5b80604052505050565b6000612116611cd7565b905061212282826120db565b919050565b600067ffffffffffffffff821115612142576121416120ac565b5b61214b82611df5565b9050602081019050919050565b82818337600083830152505050565b600061217a61217584612127565b61210c565b905082815260208101848484011115612196576121956120a7565b5b6121a1848285612158565b509392505050565b600082601f8301126121be576121bd6120a2565b5b81356121ce848260208601612167565b91505092915050565b600080600080608085870312156121f1576121f0611ce1565b5b60006121ff87828801611f37565b945050602061221087828801611f37565b935050604061222187828801611e82565b925050606085013567ffffffffffffffff81111561224257612241611ce6565b5b61224e878288016121a9565b91505092959194509250565b600067ffffffffffffffff821115612275576122746120ac565b5b61227e82611df5565b9050602081019050919050565b600061229e6122998461225a565b61210c565b9050828152602081018484840111156122ba576122b96120a7565b5b6122c5848285612158565b509392505050565b600082601f8301126122e2576122e16120a2565b5b81356122f284826020860161228b565b91505092915050565b60006020828403121561231157612310611ce1565b5b600082013567ffffffffffffffff81111561232f5761232e611ce6565b5b61233b848285016122cd565b91505092915050565b6000806040838503121561235b5761235a611ce1565b5b600061236985828601611f37565b925050602061237a85828601611f37565b9150509250929050565b7f4e487b7100000000000000000000000000000000000000000000000000000000600052602260045260246000fd5b600060028204905060018216806123cb57607f821691505b6020821081036123de576123dd612384565b5b50919050565b7f4552433732313a20617070726f76656420717565727920666f72206e6f6e657860008201527f697374656e7420746f6b656e0000000000000000000000000000000000000000602082015250565b6000612440602c83611db1565b915061244b826123e4565b604082019050919050565b6000602082019050818103600083015261246f81612433565b9050919050565b7f4552433732313a20617070726f76616c20746f2063757272656e74206f776e6560008201527f7200000000000000000000000000000000000000000000000000000000000000602082015250565b60006124d2602183611db1565b91506124dd82612476565b604082019050919050565b60006020820190508181036000830152612501816124c5565b9050919050565b7f4552433732313a20617070726f76652063616c6c6572206973206e6f74206f7760008201527f6e6572206e6f7220617070726f76656420666f7220616c6c0000000000000000602082015250565b6000612564603883611db1565b915061256f82612508565b604082019050919050565b6000602082019050818103600083015261259381612557565b9050919050565b7f4552433732313a207472616e736665722063616c6c6572206973206e6f74206f60008201527f776e6572206e6f7220617070726f766564000000000000000000000000000000602082015250565b60006125f6603183611db1565b91506126018261259a565b604082019050919050565b60006020820190508181036000830152612625816125e9565b9050919050565b7f4552433732313a206f776e657220717565727920666f72206e6f6e657869737460008201527f656e7420746f6b656e0000000000000000000000000000000000000000000000602082015250565b6000612688602983611db1565b91506126938261262c565b604082019050919050565b600060208201905081810360008301526126b78161267b565b9050919050565b7f4552433732313a2062616c616e636520717565727920666f7220746865207a6560008201527f726f206164647265737300000000000000000000000000000000000000000000602082015250565b600061271a602a83611db1565b9150612725826126be565b604082019050919050565b600060208201905081810360008301526127498161270d565b9050919050565b7f45524337323155524953746f726167653a2055524920717565727920666f722060008201527f6e6f6e6578697374656e7420746f6b656e000000000000000000000000000000602082015250565b60006127ac603183611db1565b91506127b782612750565b604082019050919050565b600060208201905081810360008301526127db8161279f565b9050919050565b600081905092915050565b60006127f882611da6565b61280281856127e2565b9350612812818560208601611dc2565b80840191505092915050565b600061282a82856127ed565b915061283682846127ed565b91508190509392505050565b7f3c2f746578743e3c2f7376673e00000000000000000000000000000000000000600082015250565b6000612878600d836127e2565b915061288382612842565b600d82019050919050565b600061289a82856127ed565b91506128a682846127ed565b91506128b18261286b565b91508190509392505050565b7f7b226e616d65223a202200000000000000000000000000000000000000000000600082015250565b60006128f3600a836127e2565b91506128fe826128bd565b600a82019050919050565b7f222c20226465736372697074696f6e223a202249732074686973206172743f2260008201527f2c2022696d616765223a2022646174613a696d6167652f7376672b786d6c3b6260208201527f61736536342c0000000000000000000000000000000000000000000000000000604082015250565b600061298b6046836127e2565b915061299682612909565b604682019050919050565b7f227d000000000000000000000000000000000000000000000000000000000000600082015250565b60006129d76002836127e2565b91506129e2826129a1565b600282019050919050565b60006129f8826128e6565b9150612a0482856127ed565b9150612a0f8261297e565b9150612a1b82846127ed565b9150612a26826129ca565b91508190509392505050565b7f646174613a6170706c69636174696f6e2f6a736f6e3b6261736536342c000000600082015250565b6000612a68601d836127e2565b9150612a7382612a32565b601d82019050919050565b6000612a8982612a5b565b9150612a9582846127ed565b915081905092915050565b7f4552433732313a206f70657261746f7220717565727920666f72206e6f6e657860008201527f697374656e7420746f6b656e0000000000000000000000000000000000000000602082015250565b6000612afc602c83611db1565b9150612b0782612aa0565b604082019050919050565b60006020820190508181036000830152612b2b81612aef565b9050919050565b7f4552433732313a207472616e736665722066726f6d20696e636f72726563742060008201527f6f776e6572000000000000000000000000000000000000000000000000000000602082015250565b6000612b8e602583611db1565b9150612b9982612b32565b604082019050919050565b60006020820190508181036000830152612bbd81612b81565b9050919050565b7f4552433732313a207472616e7366657220746f20746865207a65726f2061646460008201527f7265737300000000000000000000000000000000000000000000000000000000602082015250565b6000612c20602483611db1565b9150612c2b82612bc4565b604082019050919050565b60006020820190508181036000830152612c4f81612c13565b9050919050565b7f4e487b7100000000000000000000000000000000000000000000000000000000600052601160045260246000fd5b6000612c9082611e61565b9150612c9b83611e61565b925082821015612cae57612cad612c56565b5b828203905092915050565b6000612cc482611e61565b9150612ccf83611e61565b9250827fffffffffffffffffffffffffffffffffffffffffffffffffffffffffffffffff03821115612d0457612d03612c56565b5b828201905092915050565b7f4552433732313a20617070726f766520746f2063616c6c657200000000000000600082015250565b6000612d45601983611db1565b9150612d5082612d0f565b602082019050919050565b60006020820190508181036000830152612d7481612d38565b9050919050565b7f4552433732313a207472616e7366657220746f206e6f6e20455243373231526560008201527f63656976657220696d706c656d656e7465720000000000000000000000000000602082015250565b6000612dd7603283611db1565b9150612de282612d7b565b604082019050919050565b60006020820190508181036000830152612e0681612dca565b9050919050565b7f4552433732314d657461646174613a2055524920717565727920666f72206e6f60008201527f6e6578697374656e7420746f6b656e0000000000000000000000000000000000602082015250565b6000612e69602f83611db1565b9150612e7482612e0d565b604082019050919050565b60006020820190508181036000830152612e9881612e5c565b9050919050565b6000612eaa82611e61565b91507fffffffffffffffffffffffffffffffffffffffffffffffffffffffffffffffff8203612edc57612edb612c56565b5b600182019050919050565b7f4e487b7100000000000000000000000000000000000000000000000000000000600052601260045260246000fd5b6000612f2182611e61565b9150612f2c83611e61565b925082612f3c57612f3b612ee7565b5b828204905092915050565b6000612f5282611e61565b9150612f5d83611e61565b925082612f6d57612f6c612ee7565b5b828206905092915050565b7f4e487b7100000000000000000000000000000000000000000000000000000000600052603260045260246000fd5b6000612fb282611e61565b9150612fbd83611e61565b9250817fffffffffffffffffffffffffffffffffffffffffffffffffffffffffffffffff0483118215151615612ff657612ff5612c56565b5b828202905092915050565b7f45524337323155524953746f726167653a2055524920736574206f66206e6f6e60008201527f6578697374656e7420746f6b656e000000000000000000000000000000000000602082015250565b600061305d602e83611db1565b915061306882613001565b604082019050919050565b6000602082019050818103600083015261308c81613050565b9050919050565b600081519050919050565b600082825260208201905092915050565b60006130ba82613093565b6130c4818561309e565b93506130d4818560208601611dc2565b6130dd81611df5565b840191505092915050565b60006080820190506130fd6000830187611ef6565b61310a6020830186611ef6565b613117604083018561200c565b818103606083015261312981846130af565b905095945050505050565b60008151905061314381611d17565b92915050565b60006020828403121561315f5761315e611ce1565b5b600061316d84828501613134565b91505092915050565b7f4552433732313a206d696e7420746f20746865207a65726f2061646472657373600082015250565b60006131ac602083611db1565b91506131b782613176565b602082019050919050565b600060208201905081810360008301526131db8161319f565b9050919050565b7f4552433732313a20746f6b656e20616c7265616479206d696e74656400000000600082015250565b6000613218601c83611db1565b9150613223826131e2565b602082019050919050565b600060208201905081810360008301526132478161320b565b905091905056fe3c7376672076696577426f783d2730203020333530203335302720786d6c6e733d27687474703a2f2f7777772e77332e6f72672f323030302f73766727203e3c7374796c653e2e62617365207b2066696c6c3a2077686974653b20666f6e742d66616d696c793a2073657269663b20666f6e742d73697a653a20323470783b207d3c2f7374796c653e3c636972636c652063783d27313735272063793d273137352720723d27313735272077696474683d273130302527206865696768743d2731303025272066696c6c3d27626c61636b273e3c2f636972636c653e3c7465787420783d273530252720793d273530252720636c6173733d27626173652720646f6d696e616e742d626173656c696e653d276d6964646c652720746578742d616e63686f723d276d6964646c65273e546f6b656e20234142434445464748494a4b4c4d4e4f505152535455565758595a6162636465666768696a6b6c6d6e6f707172737475767778797a303132333435363738392b2fa2646970667358221220d145e902518bd8accab9e5034ec9a76b37734fa364e0534ad4d500d8fdb1e88364736f6c634300080d0033",
  "linkReferences": {},
  "deployedLinkReferences": {}
}