{
  "_format": "hh-sol-artifact-1",
  "contractName": "jnft",
  "sourceName": "contracts/jnft.sol",
  "abi": [
    {
      "inputs": [],
      "stateMutability": "nonpayable",
      "type": "constructor"
    },
    {
      "anonymous": false,
      "inputs": [
        {
          "indexed": true,
          "internalType": "address",
          "name": "owner",
          "type": "address"
        },
        {
          "indexed": true,
          "internalType": "address",
          "name": "approved",
          "type": "address"
        },
        {
          "indexed": true,
          "internalType": "uint256",
          "name": "tokenId",
          "type": "uint256"
        }
      ],
      "name": "Approval",
      "type": "event"
    },
    {
      "anonymous": false,
      "inputs": [
        {
          "indexed": true,
          "internalType": "address",
          "name": "owner",
          "type": "address"
        },
        {
          "indexed": true,
          "internalType": "address",
          "name": "operator",
          "type": "address"
        },
        {
          "indexed": false,
          "internalType": "bool",
          "name": "approved",
          "type": "bool"
        }
      ],
      "name": "ApprovalForAll",
      "type": "event"
    },
    {
      "anonymous": false,
      "inputs": [
        {
          "indexed": true,
          "internalType": "address",
          "name": "from",
          "type": "address"
        },
        {
          "indexed": true,
          "internalType": "address",
          "name": "to",
          "type": "address"
        },
        {
          "indexed": true,
          "internalType": "uint256",
          "name": "tokenId",
          "type": "uint256"
        }
      ],
      "name": "Transfer",
      "type": "event"
    },
    {
      "inputs": [
        {
          "internalType": "address",
          "name": "to",
          "type": "address"
        },
        {
          "internalType": "uint256",
          "name": "tokenId",
          "type": "uint256"
        }
      ],
      "name": "approve",
      "outputs": [],
      "stateMutability": "nonpayable",
      "type": "function"
    },
    {
      "inputs": [
        {
          "internalType": "address",
          "name": "owner",
          "type": "address"
        }
      ],
      "name": "balanceOf",
      "outputs": [
        {
          "internalType": "uint256",
          "name": "",
          "type": "uint256"
        }
      ],
      "stateMutability": "view",
      "type": "function"
    },
    {
      "inputs": [],
      "name": "collectionName",
      "outputs": [
        {
          "internalType": "string",
          "name": "",
          "type": "string"
        }
      ],
      "stateMutability": "view",
      "type": "function"
    },
    {
      "inputs": [],
      "name": "collectionSymbol",
      "outputs": [
        {
          "internalType": "string",
          "name": "",
          "type": "string"
        }
      ],
      "stateMutability": "view",
      "type": "function"
    },
    {
      "inputs": [
        {
          "internalType": "string",
          "name": "_svg",
          "type": "string"
        },
        {
          "internalType": "string",
          "name": "_answer",
          "type": "string"
        },
        {
          "internalType": "string",
          "name": "_name",
          "type": "string"
        }
      ],
      "name": "createknft",
      "outputs": [
        {
          "internalType": "uint256",
          "name": "",
          "type": "uint256"
        }
      ],
      "stateMutability": "nonpayable",
      "type": "function"
    },
    {
      "inputs": [
        {
          "internalType": "uint256",
          "name": "tokenId",
          "type": "uint256"
        }
      ],
      "name": "getApproved",
      "outputs": [
        {
          "internalType": "address",
          "name": "",
          "type": "address"
        }
      ],
      "stateMutability": "view",
      "type": "function"
    },
    {
      "inputs": [
        {
          "internalType": "address",
          "name": "owner",
          "type": "address"
        },
        {
          "internalType": "address",
          "name": "operator",
          "type": "address"
        }
      ],
      "name": "isApprovedForAll",
      "outputs": [
        {
          "internalType": "bool",
          "name": "",
          "type": "bool"
        }
      ],
      "stateMutability": "view",
      "type": "function"
    },
    {
      "inputs": [],
      "name": "name",
      "outputs": [
        {
          "internalType": "string",
          "name": "",
          "type": "string"
        }
      ],
      "stateMutability": "view",
      "type": "function"
    },
    {
      "inputs": [
        {
          "internalType": "uint256",
          "name": "tokenId",
          "type": "uint256"
        }
      ],
      "name": "ownerOf",
      "outputs": [
        {
          "internalType": "address",
          "name": "",
          "type": "address"
        }
      ],
      "stateMutability": "view",
      "type": "function"
    },
    {
      "inputs": [
        {
          "internalType": "address",
          "name": "from",
          "type": "address"
        },
        {
          "internalType": "address",
          "name": "to",
          "type": "address"
        },
        {
          "internalType": "uint256",
          "name": "tokenId",
          "type": "uint256"
        }
      ],
      "name": "safeTransferFrom",
      "outputs": [],
      "stateMutability": "nonpayable",
      "type": "function"
    },
    {
      "inputs": [
        {
          "internalType": "address",
          "name": "from",
          "type": "address"
        },
        {
          "internalType": "address",
          "name": "to",
          "type": "address"
        },
        {
          "internalType": "uint256",
          "name": "tokenId",
          "type": "uint256"
        },
        {
          "internalType": "bytes",
          "name": "_data",
          "type": "bytes"
        }
      ],
      "name": "safeTransferFrom",
      "outputs": [],
      "stateMutability": "nonpayable",
      "type": "function"
    },
    {
      "inputs": [
        {
          "internalType": "address",
          "name": "operator",
          "type": "address"
        },
        {
          "internalType": "bool",
          "name": "approved",
          "type": "bool"
        }
      ],
      "name": "setApprovalForAll",
      "outputs": [],
      "stateMutability": "nonpayable",
      "type": "function"
    },
    {
      "inputs": [
        {
          "internalType": "bytes4",
          "name": "interfaceId",
          "type": "bytes4"
        }
      ],
      "name": "supportsInterface",
      "outputs": [
        {
          "internalType": "bool",
          "name": "",
          "type": "bool"
        }
      ],
      "stateMutability": "view",
      "type": "function"
    },
    {
      "inputs": [],
      "name": "symbol",
      "outputs": [
        {
          "internalType": "string",
          "name": "",
          "type": "string"
        }
      ],
      "stateMutability": "view",
      "type": "function"
    },
    {
      "inputs": [
        {
          "internalType": "uint256",
          "name": "tokenId",
          "type": "uint256"
        }
      ],
      "name": "tokenURI",
      "outputs": [
        {
          "internalType": "string",
          "name": "",
          "type": "string"
        }
      ],
      "stateMutability": "view",
      "type": "function"
    },
    {
      "inputs": [
        {
          "internalType": "address",
          "name": "from",
          "type": "address"
        },
        {
          "internalType": "address",
          "name": "to",
          "type": "address"
        },
        {
          "internalType": "uint256",
          "name": "tokenId",
          "type": "uint256"
        }
      ],
      "name": "transferFrom",
      "outputs": [],
      "stateMutability": "nonpayable",
      "type": "function"
    }
  ],
  "bytecode": "0x60806040523480156200001157600080fd5b506040518060400160405280600c81526020017f57686174204973204172743f00000000000000000000000000000000000000008152506040518060400160405280600581526020017f57494152540000000000000000000000000000000000000000000000000000008152508160009080519060200190620000969291906200023c565b508060019080519060200190620000af9291906200023c565b505050620000c26200010860201b60201c565b60089080519060200190620000d99291906200023c565b50620000ea620001a260201b60201c565b60099080519060200190620001019291906200023c565b5062000350565b60606000805462000119906200031b565b80601f016020809104026020016040519081016040528092919081815260200182805462000147906200031b565b8015620001985780601f106200016c5761010080835404028352916020019162000198565b820191906000526020600020905b8154815290600101906020018083116200017a57829003601f168201915b5050505050905090565b606060018054620001b3906200031b565b80601f0160208091040260200160405190810160405280929190818152602001828054620001e1906200031b565b8015620002325780601f10620002065761010080835404028352916020019162000232565b820191906000526020600020905b8154815290600101906020018083116200021457829003601f168201915b5050505050905090565b8280546200024a906200031b565b90600052602060002090601f0160209004810192826200026e5760008555620002ba565b82601f106200028957805160ff1916838001178555620002ba565b82800160010185558215620002ba579182015b82811115620002b95782518255916020019190600101906200029c565b5b509050620002c99190620002cd565b5090565b5b80821115620002e8576000816000905550600101620002ce565b5090565b7f4e487b7100000000000000000000000000000000000000000000000000000000600052602260045260246000fd5b600060028204905060018216806200033457607f821691505b6020821081036200034a5762000349620002ec565b5b50919050565b6132d580620003606000396000f3fe608060405234801561001057600080fd5b50600436106101005760003560e01c80636352211e11610097578063b88d4fde11610066578063b88d4fde146102bf578063c87b56dd146102db578063e5326ab11461030b578063e985e9c51461032957610100565b80636352211e1461022557806370a082311461025557806395d89b4114610285578063a22cb465146102a357610100565b806323b872dd116100d357806323b872dd1461019f5780632f39352a146101bb57806342842e0e146101d95780635618ce8a146101f557610100565b806301ffc9a71461010557806306fdde0314610135578063081812fc14610153578063095ea7b314610183575b600080fd5b61011f600480360381019061011a9190611d1c565b610359565b60405161012c9190611d64565b60405180910390f35b61013d61043b565b60405161014a9190611e18565b60405180910390f35b61016d60048036038101906101689190611e70565b6104cd565b60405161017a9190611ede565b60405180910390f35b61019d60048036038101906101989190611f25565b610552565b005b6101b960048036038101906101b49190611f65565b610669565b005b6101c36106c9565b6040516101d09190611e18565b60405180910390f35b6101f360048036038101906101ee9190611f65565b610757565b005b61020f600480360381019061020a91906120ed565b610777565b60405161021c91906121a3565b60405180910390f35b61023f600480360381019061023a9190611e70565b610832565b60405161024c9190611ede565b60405180910390f35b61026f600480360381019061026a91906121be565b6108e3565b60405161027c91906121a3565b60405180910390f35b61028d61099a565b60405161029a9190611e18565b60405180910390f35b6102bd60048036038101906102b89190612217565b610a2c565b005b6102d960048036038101906102d491906122f8565b610a42565b005b6102f560048036038101906102f09190611e70565b610aa4565b6040516103029190611e18565b60405180910390f35b610313610bf5565b6040516103209190611e18565b60405180910390f35b610343600480360381019061033e919061237b565b610c83565b6040516103509190611d64565b60405180910390f35b60007f80ac58cd000000000000000000000000000000000000000000000000000000007bffffffffffffffffffffffffffffffffffffffffffffffffffffffff1916827bffffffffffffffffffffffffffffffffffffffffffffffffffffffff1916148061042457507f5b5e139f000000000000000000000000000000000000000000000000000000007bffffffffffffffffffffffffffffffffffffffffffffffffffffffff1916827bffffffffffffffffffffffffffffffffffffffffffffffffffffffff1916145b80610434575061043382610d17565b5b9050919050565b60606000805461044a906123ea565b80601f0160208091040260200160405190810160405280929190818152602001828054610476906123ea565b80156104c35780601f10610498576101008083540402835291602001916104c3565b820191906000526020600020905b8154815290600101906020018083116104a657829003601f168201915b5050505050905090565b60006104d882610d81565b610517576040517f08c379a000000000000000000000000000000000000000000000000000000000815260040161050e9061248d565b60405180910390fd5b6004600083815260200190815260200160002060009054906101000a900473ffffffffffffffffffffffffffffffffffffffff169050919050565b600061055d82610832565b90508073ffffffffffffffffffffffffffffffffffffffff168373ffffffffffffffffffffffffffffffffffffffff16036105cd576040517f08c379a00000000000000000000000000000000000000000000000000000000081526004016105c49061251f565b60405180910390fd5b8073ffffffffffffffffffffffffffffffffffffffff166105ec610ded565b73ffffffffffffffffffffffffffffffffffffffff16148061061b575061061a81610615610ded565b610c83565b5b61065a576040517f08c379a0000000000000000000000000000000000000000000000000000000008152600401610651906125b1565b60405180910390fd5b6106648383610df5565b505050565b61067a610674610ded565b82610eae565b6106b9576040517f08c379a00000000000000000000000000000000000000000000000000000000081526004016106b090612643565b60405180910390fd5b6106c4838383610f8c565b505050565b600980546106d6906123ea565b80601f0160208091040260200160405190810160405280929190818152602001828054610702906123ea565b801561074f5780601f106107245761010080835404028352916020019161074f565b820191906000526020600020905b81548152906001019060200180831161073257829003601f168201915b505050505081565b61077283838360405180602001604052806000815250610a42565b505050565b60008061078460076111f2565b9050600085604051602001610799919061269f565b604051602081830303815290604052905060006107e086866107ba85611200565b6040516020016107cc9392919061280c565b604051602081830303815290604052611200565b90506000816040516020016107f591906128b5565b60405160208183030381529060405290506108103385611397565b61081a84826113b5565b6108246007611429565b839450505050509392505050565b6000806002600084815260200190815260200160002060009054906101000a900473ffffffffffffffffffffffffffffffffffffffff169050600073ffffffffffffffffffffffffffffffffffffffff168173ffffffffffffffffffffffffffffffffffffffff16036108da576040517f08c379a00000000000000000000000000000000000000000000000000000000081526004016108d190612949565b60405180910390fd5b80915050919050565b60008073ffffffffffffffffffffffffffffffffffffffff168273ffffffffffffffffffffffffffffffffffffffff1603610953576040517f08c379a000000000000000000000000000000000000000000000000000000000815260040161094a906129db565b60405180910390fd5b600360008373ffffffffffffffffffffffffffffffffffffffff1673ffffffffffffffffffffffffffffffffffffffff168152602001908152602001600020549050919050565b6060600180546109a9906123ea565b80601f01602080910402602001604051908101604052809291908181526020018280546109d5906123ea565b8015610a225780601f106109f757610100808354040283529160200191610a22565b820191906000526020600020905b815481529060010190602001808311610a0557829003601f168201915b5050505050905090565b610a3e610a37610ded565b838361143f565b5050565b610a53610a4d610ded565b83610eae565b610a92576040517f08c379a0000000000000000000000000000000000000000000000000000000008152600401610a8990612643565b60405180910390fd5b610a9e848484846115ab565b50505050565b6060610aaf82610d81565b610aee576040517f08c379a0000000000000000000000000000000000000000000000000000000008152600401610ae590612a6d565b60405180910390fd5b6000600660008481526020019081526020016000208054610b0e906123ea565b80601f0160208091040260200160405190810160405280929190818152602001828054610b3a906123ea565b8015610b875780601f10610b5c57610100808354040283529160200191610b87565b820191906000526020600020905b815481529060010190602001808311610b6a57829003601f168201915b505050505090506000610b98611607565b90506000815103610bad578192505050610bf0565b600082511115610be2578082604051602001610bca929190612a8d565b60405160208183030381529060405292505050610bf0565b610beb8461161e565b925050505b919050565b60088054610c02906123ea565b80601f0160208091040260200160405190810160405280929190818152602001828054610c2e906123ea565b8015610c7b5780601f10610c5057610100808354040283529160200191610c7b565b820191906000526020600020905b815481529060010190602001808311610c5e57829003601f168201915b505050505081565b6000600560008473ffffffffffffffffffffffffffffffffffffffff1673ffffffffffffffffffffffffffffffffffffffff16815260200190815260200160002060008373ffffffffffffffffffffffffffffffffffffffff1673ffffffffffffffffffffffffffffffffffffffff16815260200190815260200160002060009054906101000a900460ff16905092915050565b60007f01ffc9a7000000000000000000000000000000000000000000000000000000007bffffffffffffffffffffffffffffffffffffffffffffffffffffffff1916827bffffffffffffffffffffffffffffffffffffffffffffffffffffffff1916149050919050565b60008073ffffffffffffffffffffffffffffffffffffffff166002600084815260200190815260200160002060009054906101000a900473ffffffffffffffffffffffffffffffffffffffff1673ffffffffffffffffffffffffffffffffffffffff1614159050919050565b600033905090565b816004600083815260200190815260200160002060006101000a81548173ffffffffffffffffffffffffffffffffffffffff021916908373ffffffffffffffffffffffffffffffffffffffff160217905550808273ffffffffffffffffffffffffffffffffffffffff16610e6883610832565b73ffffffffffffffffffffffffffffffffffffffff167f8c5be1e5ebec7d5bd14f71427d1e84f3dd0314c0f7b2291e5b200ac8c7c3b92560405160405180910390a45050565b6000610eb982610d81565b610ef8576040517f08c379a0000000000000000000000000000000000000000000000000000000008152600401610eef90612b23565b60405180910390fd5b6000610f0383610832565b90508073ffffffffffffffffffffffffffffffffffffffff168473ffffffffffffffffffffffffffffffffffffffff161480610f7257508373ffffffffffffffffffffffffffffffffffffffff16610f5a846104cd565b73ffffffffffffffffffffffffffffffffffffffff16145b80610f835750610f828185610c83565b5b91505092915050565b8273ffffffffffffffffffffffffffffffffffffffff16610fac82610832565b73ffffffffffffffffffffffffffffffffffffffff1614611002576040517f08c379a0000000000000000000000000000000000000000000000000000000008152600401610ff990612bb5565b60405180910390fd5b600073ffffffffffffffffffffffffffffffffffffffff168273ffffffffffffffffffffffffffffffffffffffff1603611071576040517f08c379a000000000000000000000000000000000000000000000000000000000815260040161106890612c47565b60405180910390fd5b61107c8383836116c5565b611087600082610df5565b6001600360008573ffffffffffffffffffffffffffffffffffffffff1673ffffffffffffffffffffffffffffffffffffffff16815260200190815260200160002060008282546110d79190612c96565b925050819055506001600360008473ffffffffffffffffffffffffffffffffffffffff1673ffffffffffffffffffffffffffffffffffffffff168152602001908152602001600020600082825461112e9190612cca565b92505081905550816002600083815260200190815260200160002060006101000a81548173ffffffffffffffffffffffffffffffffffffffff021916908373ffffffffffffffffffffffffffffffffffffffff160217905550808273ffffffffffffffffffffffffffffffffffffffff168473ffffffffffffffffffffffffffffffffffffffff167fddf252ad1be2c89b69c2b068fc378daa952ba7f163c4a11628f55a4df523b3ef60405160405180910390a46111ed8383836116ca565b505050565b600081600001549050919050565b6060600082519050600081036112285760405180602001604052806000815250915050611392565b600060036002836112399190612cca565b6112439190612d4f565b600461124f9190612d80565b905060006020826112609190612cca565b67ffffffffffffffff81111561127957611278611fc2565b5b6040519080825280601f01601f1916602001820160405280156112ab5781602001600182028036833780820191505090505b5090506000604051806060016040528060408152602001613260604091399050600181016020830160005b8681101561134f5760038101905062ffffff818a015116603f8160121c168401518060081b905060ff603f83600c1c1686015116810190508060081b905060ff603f8360061c1686015116810190508060081b905060ff603f831686015116810190508060e01b905080845260048401935050506112d6565b506003860660018114611369576002811461137957611384565b613d3d60f01b6002830352611384565b603d60f81b60018303525b508484525050819450505050505b919050565b6113b18282604051806020016040528060008152506116cf565b5050565b6113be82610d81565b6113fd576040517f08c379a00000000000000000000000000000000000000000000000000000000081526004016113f490612e4c565b60405180910390fd5b80600660008481526020019081526020016000209080519060200190611424929190611c0d565b505050565b6001816000016000828254019250508190555050565b8173ffffffffffffffffffffffffffffffffffffffff168373ffffffffffffffffffffffffffffffffffffffff16036114ad576040517f08c379a00000000000000000000000000000000000000000000000000000000081526004016114a490612eb8565b60405180910390fd5b80600560008573ffffffffffffffffffffffffffffffffffffffff1673ffffffffffffffffffffffffffffffffffffffff16815260200190815260200160002060008473ffffffffffffffffffffffffffffffffffffffff1673ffffffffffffffffffffffffffffffffffffffff16815260200190815260200160002060006101000a81548160ff0219169083151502179055508173ffffffffffffffffffffffffffffffffffffffff168373ffffffffffffffffffffffffffffffffffffffff167f17307eab39ab6107e8899845ad3d59bd9653f200f220920489ca2b5937696c318360405161159e9190611d64565b60405180910390a3505050565b6115b6848484610f8c565b6115c28484848461172a565b611601576040517f08c379a00000000000000000000000000000000000000000000000000000000081526004016115f890612f4a565b60405180910390fd5b50505050565b606060405180602001604052806000815250905090565b606061162982610d81565b611668576040517f08c379a000000000000000000000000000000000000000000000000000000000815260040161165f90612fdc565b60405180910390fd5b6000611672611607565b9050600081511161169257604051806020016040528060008152506116bd565b8061169c846118b1565b6040516020016116ad929190612a8d565b6040516020818303038152906040525b915050919050565b505050565b505050565b6116d98383611a11565b6116e6600084848461172a565b611725576040517f08c379a000000000000000000000000000000000000000000000000000000000815260040161171c90612f4a565b60405180910390fd5b505050565b600061174b8473ffffffffffffffffffffffffffffffffffffffff16611bea565b156118a4578373ffffffffffffffffffffffffffffffffffffffff1663150b7a02611774610ded565b8786866040518563ffffffff1660e01b81526004016117969493929190613051565b6020604051808303816000875af19250505080156117d257506040513d601f19601f820116820180604052508101906117cf91906130b2565b60015b611854573d8060008114611802576040519150601f19603f3d011682016040523d82523d6000602084013e611807565b606091505b50600081510361184c576040517f08c379a000000000000000000000000000000000000000000000000000000000815260040161184390612f4a565b60405180910390fd5b805181602001fd5b63150b7a0260e01b7bffffffffffffffffffffffffffffffffffffffffffffffffffffffff1916817bffffffffffffffffffffffffffffffffffffffffffffffffffffffff1916149150506118a9565b600190505b949350505050565b6060600082036118f8576040518060400160405280600181526020017f30000000000000000000000000000000000000000000000000000000000000008152509050611a0c565b600082905060005b6000821461192a578080611913906130df565b915050600a826119239190612d4f565b9150611900565b60008167ffffffffffffffff81111561194657611945611fc2565b5b6040519080825280601f01601f1916602001820160405280156119785781602001600182028036833780820191505090505b5090505b60008514611a05576001826119919190612c96565b9150600a856119a09190613127565b60306119ac9190612cca565b60f81b8183815181106119c2576119c1613158565b5b60200101907effffffffffffffffffffffffffffffffffffffffffffffffffffffffffffff1916908160001a905350600a856119fe9190612d4f565b945061197c565b8093505050505b919050565b600073ffffffffffffffffffffffffffffffffffffffff168273ffffffffffffffffffffffffffffffffffffffff1603611a80576040517f08c379a0000000000000000000000000000000000000000000000000000000008152600401611a77906131d3565b60405180910390fd5b611a8981610d81565b15611ac9576040517f08c379a0000000000000000000000000000000000000000000000000000000008152600401611ac09061323f565b60405180910390fd5b611ad5600083836116c5565b6001600360008473ffffffffffffffffffffffffffffffffffffffff1673ffffffffffffffffffffffffffffffffffffffff1681526020019081526020016000206000828254611b259190612cca565b92505081905550816002600083815260200190815260200160002060006101000a81548173ffffffffffffffffffffffffffffffffffffffff021916908373ffffffffffffffffffffffffffffffffffffffff160217905550808273ffffffffffffffffffffffffffffffffffffffff16600073ffffffffffffffffffffffffffffffffffffffff167fddf252ad1be2c89b69c2b068fc378daa952ba7f163c4a11628f55a4df523b3ef60405160405180910390a4611be6600083836116ca565b5050565b6000808273ffffffffffffffffffffffffffffffffffffffff163b119050919050565b828054611c19906123ea565b90600052602060002090601f016020900481019282611c3b5760008555611c82565b82601f10611c5457805160ff1916838001178555611c82565b82800160010185558215611c82579182015b82811115611c81578251825591602001919060010190611c66565b5b509050611c8f9190611c93565b5090565b5b80821115611cac576000816000905550600101611c94565b5090565b6000604051905090565b600080fd5b600080fd5b60007fffffffff0000000000000000000000000000000000000000000000000000000082169050919050565b611cf981611cc4565b8114611d0457600080fd5b50565b600081359050611d1681611cf0565b92915050565b600060208284031215611d3257611d31611cba565b5b6000611d4084828501611d07565b91505092915050565b60008115159050919050565b611d5e81611d49565b82525050565b6000602082019050611d796000830184611d55565b92915050565b600081519050919050565b600082825260208201905092915050565b60005b83811015611db9578082015181840152602081019050611d9e565b83811115611dc8576000848401525b50505050565b6000601f19601f8301169050919050565b6000611dea82611d7f565b611df48185611d8a565b9350611e04818560208601611d9b565b611e0d81611dce565b840191505092915050565b60006020820190508181036000830152611e328184611ddf565b905092915050565b6000819050919050565b611e4d81611e3a565b8114611e5857600080fd5b50565b600081359050611e6a81611e44565b92915050565b600060208284031215611e8657611e85611cba565b5b6000611e9484828501611e5b565b91505092915050565b600073ffffffffffffffffffffffffffffffffffffffff82169050919050565b6000611ec882611e9d565b9050919050565b611ed881611ebd565b82525050565b6000602082019050611ef36000830184611ecf565b92915050565b611f0281611ebd565b8114611f0d57600080fd5b50565b600081359050611f1f81611ef9565b92915050565b60008060408385031215611f3c57611f3b611cba565b5b6000611f4a85828601611f10565b9250506020611f5b85828601611e5b565b9150509250929050565b600080600060608486031215611f7e57611f7d611cba565b5b6000611f8c86828701611f10565b9350506020611f9d86828701611f10565b9250506040611fae86828701611e5b565b9150509250925092565b600080fd5b600080fd5b7f4e487b7100000000000000000000000000000000000000000000000000000000600052604160045260246000fd5b611ffa82611dce565b810181811067ffffffffffffffff8211171561201957612018611fc2565b5b80604052505050565b600061202c611cb0565b90506120388282611ff1565b919050565b600067ffffffffffffffff82111561205857612057611fc2565b5b61206182611dce565b9050602081019050919050565b82818337600083830152505050565b600061209061208b8461203d565b612022565b9050828152602081018484840111156120ac576120ab611fbd565b5b6120b784828561206e565b509392505050565b600082601f8301126120d4576120d3611fb8565b5b81356120e484826020860161207d565b91505092915050565b60008060006060848603121561210657612105611cba565b5b600084013567ffffffffffffffff81111561212457612123611cbf565b5b612130868287016120bf565b935050602084013567ffffffffffffffff81111561215157612150611cbf565b5b61215d868287016120bf565b925050604084013567ffffffffffffffff81111561217e5761217d611cbf565b5b61218a868287016120bf565b9150509250925092565b61219d81611e3a565b82525050565b60006020820190506121b86000830184612194565b92915050565b6000602082840312156121d4576121d3611cba565b5b60006121e284828501611f10565b91505092915050565b6121f481611d49565b81146121ff57600080fd5b50565b600081359050612211816121eb565b92915050565b6000806040838503121561222e5761222d611cba565b5b600061223c85828601611f10565b925050602061224d85828601612202565b9150509250929050565b600067ffffffffffffffff82111561227257612271611fc2565b5b61227b82611dce565b9050602081019050919050565b600061229b61229684612257565b612022565b9050828152602081018484840111156122b7576122b6611fbd565b5b6122c284828561206e565b509392505050565b600082601f8301126122df576122de611fb8565b5b81356122ef848260208601612288565b91505092915050565b6000806000806080858703121561231257612311611cba565b5b600061232087828801611f10565b945050602061233187828801611f10565b935050604061234287828801611e5b565b925050606085013567ffffffffffffffff81111561236357612362611cbf565b5b61236f878288016122ca565b91505092959194509250565b6000806040838503121561239257612391611cba565b5b60006123a085828601611f10565b92505060206123b185828601611f10565b9150509250929050565b7f4e487b7100000000000000000000000000000000000000000000000000000000600052602260045260246000fd5b6000600282049050600182168061240257607f821691505b602082108103612415576124146123bb565b5b50919050565b7f4552433732313a20617070726f76656420717565727920666f72206e6f6e657860008201527f697374656e7420746f6b656e0000000000000000000000000000000000000000602082015250565b6000612477602c83611d8a565b91506124828261241b565b604082019050919050565b600060208201905081810360008301526124a68161246a565b9050919050565b7f4552433732313a20617070726f76616c20746f2063757272656e74206f776e6560008201527f7200000000000000000000000000000000000000000000000000000000000000602082015250565b6000612509602183611d8a565b9150612514826124ad565b604082019050919050565b60006020820190508181036000830152612538816124fc565b9050919050565b7f4552433732313a20617070726f76652063616c6c6572206973206e6f74206f7760008201527f6e6572206e6f7220617070726f76656420666f7220616c6c0000000000000000602082015250565b600061259b603883611d8a565b91506125a68261253f565b604082019050919050565b600060208201905081810360008301526125ca8161258e565b9050919050565b7f4552433732313a207472616e736665722063616c6c6572206973206e6f74206f60008201527f776e6572206e6f7220617070726f766564000000000000000000000000000000602082015250565b600061262d603183611d8a565b9150612638826125d1565b604082019050919050565b6000602082019050818103600083015261265c81612620565b9050919050565b600081905092915050565b600061267982611d7f565b6126838185612663565b9350612693818560208601611d9b565b80840191505092915050565b60006126ab828461266e565b915081905092915050565b7f7b226e616d65223a202241727420697320000000000000000000000000000000600082015250565b60006126ec601183612663565b91506126f7826126b6565b601182019050919050565b7f222c20226465736372697074696f6e223a202262792000000000000000000000600082015250565b6000612738601683612663565b915061274382612702565b601682019050919050565b7f222c2022696d616765223a2022646174613a696d6167652f7376672b786d6c3b60008201527f6261736536342c00000000000000000000000000000000000000000000000000602082015250565b60006127aa602783612663565b91506127b58261274e565b602782019050919050565b7f227d000000000000000000000000000000000000000000000000000000000000600082015250565b60006127f6600283612663565b9150612801826127c0565b600282019050919050565b6000612817826126df565b9150612823828661266e565b915061282e8261272b565b915061283a828561266e565b91506128458261279d565b9150612851828461266e565b915061285c826127e9565b9150819050949350505050565b7f646174613a6170706c69636174696f6e2f6a736f6e3b6261736536342c000000600082015250565b600061289f601d83612663565b91506128aa82612869565b601d82019050919050565b60006128c082612892565b91506128cc828461266e565b915081905092915050565b7f4552433732313a206f776e657220717565727920666f72206e6f6e657869737460008201527f656e7420746f6b656e0000000000000000000000000000000000000000000000602082015250565b6000612933602983611d8a565b915061293e826128d7565b604082019050919050565b6000602082019050818103600083015261296281612926565b9050919050565b7f4552433732313a2062616c616e636520717565727920666f7220746865207a6560008201527f726f206164647265737300000000000000000000000000000000000000000000602082015250565b60006129c5602a83611d8a565b91506129d082612969565b604082019050919050565b600060208201905081810360008301526129f4816129b8565b9050919050565b7f45524337323155524953746f726167653a2055524920717565727920666f722060008201527f6e6f6e6578697374656e7420746f6b656e000000000000000000000000000000602082015250565b6000612a57603183611d8a565b9150612a62826129fb565b604082019050919050565b60006020820190508181036000830152612a8681612a4a565b9050919050565b6000612a99828561266e565b9150612aa5828461266e565b91508190509392505050565b7f4552433732313a206f70657261746f7220717565727920666f72206e6f6e657860008201527f697374656e7420746f6b656e0000000000000000000000000000000000000000602082015250565b6000612b0d602c83611d8a565b9150612b1882612ab1565b604082019050919050565b60006020820190508181036000830152612b3c81612b00565b9050919050565b7f4552433732313a207472616e736665722066726f6d20696e636f72726563742060008201527f6f776e6572000000000000000000000000000000000000000000000000000000602082015250565b6000612b9f602583611d8a565b9150612baa82612b43565b604082019050919050565b60006020820190508181036000830152612bce81612b92565b9050919050565b7f4552433732313a207472616e7366657220746f20746865207a65726f2061646460008201527f7265737300000000000000000000000000000000000000000000000000000000602082015250565b6000612c31602483611d8a565b9150612c3c82612bd5565b604082019050919050565b60006020820190508181036000830152612c6081612c24565b9050919050565b7f4e487b7100000000000000000000000000000000000000000000000000000000600052601160045260246000fd5b6000612ca182611e3a565b9150612cac83611e3a565b925082821015612cbf57612cbe612c67565b5b828203905092915050565b6000612cd582611e3a565b9150612ce083611e3a565b9250827fffffffffffffffffffffffffffffffffffffffffffffffffffffffffffffffff03821115612d1557612d14612c67565b5b828201905092915050565b7f4e487b7100000000000000000000000000000000000000000000000000000000600052601260045260246000fd5b6000612d5a82611e3a565b9150612d6583611e3a565b925082612d7557612d74612d20565b5b828204905092915050565b6000612d8b82611e3a565b9150612d9683611e3a565b9250817fffffffffffffffffffffffffffffffffffffffffffffffffffffffffffffffff0483118215151615612dcf57612dce612c67565b5b828202905092915050565b7f45524337323155524953746f726167653a2055524920736574206f66206e6f6e60008201527f6578697374656e7420746f6b656e000000000000000000000000000000000000602082015250565b6000612e36602e83611d8a565b9150612e4182612dda565b604082019050919050565b60006020820190508181036000830152612e6581612e29565b9050919050565b7f4552433732313a20617070726f766520746f2063616c6c657200000000000000600082015250565b6000612ea2601983611d8a565b9150612ead82612e6c565b602082019050919050565b60006020820190508181036000830152612ed181612e95565b9050919050565b7f4552433732313a207472616e7366657220746f206e6f6e20455243373231526560008201527f63656976657220696d706c656d656e7465720000000000000000000000000000602082015250565b6000612f34603283611d8a565b9150612f3f82612ed8565b604082019050919050565b60006020820190508181036000830152612f6381612f27565b9050919050565b7f4552433732314d657461646174613a2055524920717565727920666f72206e6f60008201527f6e6578697374656e7420746f6b656e0000000000000000000000000000000000602082015250565b6000612fc6602f83611d8a565b9150612fd182612f6a565b604082019050919050565b60006020820190508181036000830152612ff581612fb9565b9050919050565b600081519050919050565b600082825260208201905092915050565b600061302382612ffc565b61302d8185613007565b935061303d818560208601611d9b565b61304681611dce565b840191505092915050565b60006080820190506130666000830187611ecf565b6130736020830186611ecf565b6130806040830185612194565b81810360608301526130928184613018565b905095945050505050565b6000815190506130ac81611cf0565b92915050565b6000602082840312156130c8576130c7611cba565b5b60006130d68482850161309d565b91505092915050565b60006130ea82611e3a565b91507fffffffffffffffffffffffffffffffffffffffffffffffffffffffffffffffff820361311c5761311b612c67565b5b600182019050919050565b600061313282611e3a565b915061313d83611e3a565b92508261314d5761314c612d20565b5b828206905092915050565b7f4e487b7100000000000000000000000000000000000000000000000000000000600052603260045260246000fd5b7f4552433732313a206d696e7420746f20746865207a65726f2061646472657373600082015250565b60006131bd602083611d8a565b91506131c882613187565b602082019050919050565b600060208201905081810360008301526131ec816131b0565b9050919050565b7f4552433732313a20746f6b656e20616c7265616479206d696e74656400000000600082015250565b6000613229601c83611d8a565b9150613234826131f3565b602082019050919050565b600060208201905081810360008301526132588161321c565b905091905056fe4142434445464748494a4b4c4d4e4f505152535455565758595a6162636465666768696a6b6c6d6e6f707172737475767778797a303132333435363738392b2fa26469706673582212202c09816c11a3f53e1801ad99244652461dec674fb030907d3241e2e3ad5d9b8f64736f6c634300080d0033",
  "linkReferences": {},
  "deployedLinkReferences": {}
}